:100000000C942A000C9458000C943C000C943C0076
:100010000C943C000C943C000C943C000C943C0070
:100020000C943C000C943C000C943C000C943C0060
:100030000C943C000C943C000C943C000C943C0050
:100040000C943C000C943C000C943C000C943C0040
:100050000C943C0011241FBECFE5D8E0DEBFCDBF1D
:1000600020E0A0E6B0E001C01D92A136B207E1F7A2
:100070000E943E000C94A2020C940000CF93DF93E8
:10008000CDB7DEB787E390E02FEFFC0120838BE54F
:1000900090E020E4FC01208385E590E023E0FC0172
:1000A0002083789488E390E020EAFC012083FFCF4E
:1000B0001F920F920FB60F9211242F933F934F93DD
:1000C0005F936F937F938F939F93AF93BF93EF93C0
:1000D000FF93CF93DF93CDB7DEB7A297DEBFCDBF3F
:1000E000809160008F5F8093600080E090E0A8ECDA
:1000F000B2E489839A83AB83BC8320E030E04AEF8B
:1001000054E469817A818B819C810E940D026B8B02
:100110007C8B8D8B9E8B8B899C89AD89BE898D83D1
:100120009E83AF83B88720E030E040E85FE36D81D5
:100130007E818F8198850E94870188232CF481E03D
:1001400090E09A87898754C020E03FEF4FE757E45B
:100150006D817E818F8198850E9408021816D4F5E2
:1001600020E030E040E251E469817A818B819C811A
:100170000E940D026F8B788F898F9A8F8F89988D4F
:10018000A98DBA8D8F87988BA98BBA8B6F8578894B
:1001900089899A890E948C016B8F7C8F8D8F9E8FAD
:1001A000AB8DBC8DBA87A98710C088EC90E09C8786
:1001B0008B878B859C850197F1F79C878B87000047
:1001C00089859A8501979A87898789859A85892B58
:1001D00061F719C06D817E818F8198850E948C01A5
:1001E0006F8F78A389A39AA3EF8DF8A1FA87E98787
:1001F00089859A859E878D878D859E850197F1F7E4
:100200009E878D870000209160008DEC289F812DB6
:100210001124982F969596959695892F880F880F7B
:10022000890F880F922F981B892F90E0092E000CC0
:10023000AA0BBB0B8A309105A105B10508F041C09E
:100240008C559D4FFC010C94810188E390E020EADD
:10025000DC012C933CC088E390E023EFFC01208379
:1002600036C088E390E024E9DC012C9330C088E3B9
:1002700090E021E9FC0120832AC088E390E023EC90
:10028000DC012C9324C088E390E029E8FC01208362
:100290001EC088E390E028E0DC012C9318C088E3BE
:1002A00090E023EBFC01208312C088E390E020E87B
:1002B000DC012C930CC088E390E021E0FC0120835A
:1002C00006C088E390E020EADC012C9300000000E7
:1002D000A2960FB6F894DEBF0FBECDBFDF91CF91CF
:1002E000FF91EF91BF91AF919F918F917F916F910E
:1002F0005F914F913F912F910F900FBE0F901F90E4
:100300001895EE0FFF1F0590F491E02D09940E94BF
:10031000BB0108F481E008950E94E70188F09F572F
:1003200098F0B92F9927B751B0F0E1F0660F771F19
:10033000881F991F1AF0BA95C9F714C0B13091F00F
:100340000E940102B1E008950C940102672F782FFA
:100350008827B85F39F0B93FCCF3869577956795D4
:10036000B395D9F73EF490958095709561957F4F40
:100370008F4F9F4F0895990F0008550FAA0BE0E883
:10038000FEEF16161706E807F907C0F01216130657
:10039000E407F50798F0621B730B840B950B39F497
:1003A0000A2661F0232B242B252B21F408950A26FD
:1003B00009F4A140A6958FEF811D811D089557FD79
:1003C0009058440F551F59F05F3F71F04795880FC3
:1003D00097FB991F61F09F3F79F08795089512165A
:1003E00013061406551FF2CF4695F1DF08C0161606
:1003F00017061806991FF1CF8695710561050894B7
:100400000895E894BB2766277727CB0197F90895CD
:100410000E94BB0108F48FEF08950E9420020C9403
:1004200091020E94830238F00E948A0220F09523F4
:1004300011F00C947A020C94800211240C940202A4
:100440000E94DF0170F3959FC1F3950F50E0551F97
:10045000629FF001729FBB27F00DB11D639FAA2719
:10046000F00DB11DAA1F649F6627B00DA11D661F68
:10047000829F2227B00DA11D621F739FB00DA11D89
:10048000621F839FA00D611D221F749F3327A00D43
:10049000611D231F849F600D211D822F762F6A2FDF
:1004A00011249F5750409AF0F1F088234AF0EE0F44
:1004B000FF1FBB1F661F771F881F91505040A9F771
:1004C0009E3F510580F00C947A020C9402025F3F2B
:1004D000E4F3983ED4F3869577956795B795F795AD
:1004E000E7959F5FC1F7FE2B880F911D9695879525
:1004F00097F9089597F99F6780E870E060E00895A4
:100500009FEF80EC089500240A941616170618062B
:100510000906089500240A94121613061406050607
:100520000895092E0394000C11F4882352F0BB0F98
:1005300040F4BF2B11F460FF04C06F5F7F4F8F4FFB
:100540009F4F0895F894FFCF25012B01310137010A
:0C0550003D01430149014F0155015B01D1
:00000001FF
